:020000040800F2
:10000000981E002075020008292A0008A926000869
:10001000252A00086D040008F948000800000000C7
:10002000000000000000000000000000412A00085D
:1000300081040008000000003D2A0008452A00084D
:100040008F0200088F0200088F0200088F0200084C
:100050008F0200088F0200088F0200088F0200083C
:100060008F0200088F0200088F0200088F0200082C
:100070008F0200088F0200088F0200088F0200081C
:100080008F0200088F0200088F02000800000000A5
:100090000000000000000000000000008F020008C7
:1000A0008F0200088F0200088F0200088F020008EC
:1000B0008F0200088F0200088F0200088F020008DC
:1000C0008F0200088F0200088F0200088F020008CC
:1000D0008F0200088F0200088F0200080000000055
:1000E0008F0200088F0200088F0200080000000045
:1000F0000000000000000000000000008F02000867
:10010000000000008F0200088F0200088F02000824
:1001100000000000000000000000000000000000DF
:100120008F0200088F0200088F0200088F0200086B
:100130008F02000800000000000000000000000026
:100140000000000000000000000000002D2A000850
:100150008F020008710400088F0200088F02000857
:100160008F0200088F02000800000000000000005D
:10017000000000000000000000000000000000007F
:10018000000000008F0200080000000000000000D6
:100190008F02000800F002F800F05CF80AA090E876
:1001A000000C82448344AAF10107DA4501D100F032
:1001B00051F8AFF2090EBAE80F0013F0010F18BFA3
:1001C000FB1A43F001031847104C0000304C0000AC
:1001D0000A444FF0000C10F8013B13F0070408BF6D
:1001E00010F8014B1D1108BF10F8015B641E05D00B
:1001F00010F8016B641E01F8016BF9D113F0080FC0
:100200001EBF10F8014BAD1C0C1B09D16D1E58BF51
:1002100001F801CBFAD505E014F8016B01F8016B88
:100220006D1EF9D59142D6D37047000000230024FB
:1002300000250026103A28BF78C1FBD8520728BFF6
:1002400030C148BF0B6070471FB504F0ACFC1FBD48
:1002500010B510BD00F0D0F81146FFF7F5FF04F01F
:100260004DFB00F0EEF803B4FFF7F2FF03BC00F023
:10027000F5F800000948804709480047FEE7FEE717
:10028000FEE7FEE7FEE7FEE7FEE7FEE7FEE7FEE746
:1002900004480549054A064B70470000012B000839
:1002A0009501000898180020981E0020981A002038
:1002B000981A002053EA020C00F069802DE9F04BF7
:1002C0004FF00006002B1FBFB3FA83F503FA05F4C5
:1002D00024FA05F65E4012BF1643B2FA82F502FA1E
:1002E00005F4C5F120051EBF22FA05FC44EA0C0402
:1002F000203556EA044C4FEA144418BF641C4FF0F2
:1003000000084FF00009904271EB030C39D300292B
:1003100019BFB1FA81F701FA07F6B0FA80F700FACF
:1003200007F6C7F120071EBF20FA07FC46EA0C06B5
:100330002037B6FBF4FCA7EB0507103F07F01F0BB7
:10034000CBF120062CFA06F60CFA0BFB44BFB346A1
:100350000026202FA4BF5E464FF0000B5BEA060C80
:1003600008BF4FF0010B19EB0B0948EB0608ABFB7C
:10037000027C06FB02CC0BFB03CCC01B71EB0C0117
:10038000C1E70B46024641464846BDE8F08B13B52F
:10039000084318BF4FF0FF300146AFF30080BDE8BF
:1003A0001C4070474FF0000200B513469446964635
:1003B000203922BFA0E80C50A0E80C50B1F1200178
:1003C000BFF4F7AF090728BFA0E80C5048BF0CC026
:1003D0005DF804EB890028BF40F8042B08BF704784
:1003E00048BF20F8022B11F0804F18BF00F8012BF6
:1003F0007047704770477047754600F02BF8AE465F
:1004000005006946534620F00700854618B020B520
:10041000FFF73EFFBDE820404FF000064FF0000719
:100420004FF000084FF0000BAC46ACE8C009ACE858
:10043000C009ACE8C009ACE8C00921F007018D464D
:10044000704710B50446AFF300802046BDE8104069
:10045000FFF709BF00487047B80100200149182084
:10046000ABBEFEE72600020070470000FEE700007A
:1004700080B541F2DC20C2F2000000F01BF880BD24
:1004800070470000EFF3108072B600BFFEE7000077
:1004900090F83510022909D1052180F8351000683F
:1004A000016821F001010160002070478021416551
:1004B00001207047F0B581B004460020009040F262
:1004C0005C00C2F200000268D4E9166048F2B5137D
:1004D00037680821C1F64E3381403942A2FB03251B
:1004E0000CD0226813685B0708D5136823F0040357
:1004F0001360B160616D41F00101616501218140CE
:10050000394208D022685269120604D5B160616D83
:1005100041F00201616504218140394208D022681E
:100520001268920704D5B160616D41F00401616504
:1005300010218140394215D020680268120711D578
:10054000B16002680168520306D4C90506D4016887
:1005500021F00801016001E0080340D4216C09B1D9
:1005600020468847E16D202000FA01F23A4242D04D
:1005700020680368DB063ED5B26094F83530026827
:10058000052B1CD122F016020260426922F0800283
:100590004261226C0AB9A26C1AB1026822F0080208
:1005A00002603F208840B060012084F83500216D52
:1005B0000020002984F834003DD101B0F0BD01686D
:1005C000520310D4C90512D4016821F01001016052
:1005D000012084F83500002084F8340007E0A16C85
:1005E0000029BDD1BEE7080301D4616C00E0E16BD6
:1005F00009B120468847606D0028DED0606DC007D5
:1006000016D0052084F835002068A90A026822F077
:1006100001020260009A01328A42009202D8026806
:10062000D207F7D1012084F83500002084F8340087
:10063000E16C0029C1D02046884701B0F0BD000020
:100640002DE9F041044600F0D9F9C4B10546022075
:1006500084F835000020216884F83400086820F010
:100660000100086020680168C9070BD000F0C6F9D6
:10067000401B0528F6D90321202203207BE001201E
:10068000BDE8F081016848F23F02CFF21002D4E9E0
:10069000013501EA020ED4E9032143EA0E032B439C
:1006A000D4E9056C1A431143D4E90778314341EA90
:1006B0000C02616A3A43042942EA080304D1D4E9EE
:1006C0000B271A4342EA070303604269042922F018
:1006D000070241EA02012DD1D4E90A5341EA05019A
:1006E00043B3BCF5005F08D0BCF1000F12D1022D5E
:1006F00016D0012D07D09DB119E0032D17D8DFE8E2
:1007000005F00B0F0B02A3F1C072B2FA82F252098C
:100710004AB90FE0032D02D2012222B90AE006D124
:10072000C3F3006232B101214022012023E0002204
:10073000002AF8D16FF00F024AF6AB2352FA80F28A
:10074000CAF6AA23A2FB033744F6D0534161390904
:10075000C0F60003595C40F2FF3398435F2A4FF024
:100760003F0288BF0430C4E9160102FA01F181603A
:10077000002201210020626584F83510BDE8F08177
:1007800070B590F834C0BCF1010F45D04FF0010CAA
:1007900080F834C0D0F858E090F835C0BCF1010FB3
:1007A00037D14FF0020C80F835C04FF0000CC0F884
:1007B00054C0D0F800C08468056CC06DDCF80060DF
:1007C000402C26F48026CCF80060CCF804300B4690
:1007D00004BF13460A463F2101FA00F0CCF8083066
:1007E000CCF80C20CEF80800DCF8000040F0160031
:1007F000CCF800002DB1DCF8000040F00800CCF887
:100800000000DCF8000040F00100CCF800000020FF
:1008100070BD002180F83410022070BDB0B50446D0
:1008200000F0ECF8054640F2AC10C2F2000000788F
:10083000611C18BF044400BF00F0E0F8401BA04258
:10084000FAD3B0BD2DE9F04F82B000F13E4241F243
:10085000000502F1FF77C4F2020507224FEAB7262E
:10086000A84208BF0422042E38BF4FEAB7224FF037
:10087000010A002400274FF00009009209E000BFA0
:1008800009F101090437B9F1100F04F1020400F075
:10089000A6800A680AFA09FC12EA0C08F0D0D1F81E
:1008A00004B00BF0030AAAF10102012A12D88268EF
:1008B0000323CE6803FA04FE22EA0E02A640324366
:1008C00082604268CBF3001622EA0C0206FA09F6AF
:1008D00032434260BAF1030F1DD0C26803238D6812
:1008E00003FA04F6B24305FA04F63243BAF1020FF2
:1008F000C26010D16FF0030202EA59020244D2F83A
:1009000020C007F01C050F230E69AB402CEA03033F
:10091000AE4033431362026803234E68A3409A43F8
:1009200006F00303A3401A4316F4403F4FF0010AB8
:100930000260A5D0002243F644030192C4F20203F0
:100940001A6843F6004E42F480421A601A68C4F2F4
:10095000010E02F480420192019A29F003024FF63F
:10096000084C7244CFF6FF7C52F80C3007F00C06AE
:100970000F25B540AB43009D05FA06F6334342F818
:100980000C30DEF808204B6842EA080643F60C4CAF
:10099000DD0258BF22EA0806CEF80860C4F2010C56
:1009A000DCF800209D0242EA080658BF22EA080649
:1009B000CCF80060DEF804209D0342EA080658BF28
:1009C00022EA0806CEF80460DEF80020DB0342EAE3
:1009D000080658BF22EA0806CEF8006050E702B0C9
:1009E000BDE8F08F0069084018BF01207047000083
:1009F000002A08BF090481617047000041F6900099
:100A0000C2F200000068704740F2AC1041F690015D
:100A1000C2F20000C2F2000100780A6810440860C7
:100A20007047000080B543F60040C4F20200016840
:100A300041F400710160016841F480610160016866
:100A400041F480710160032000F088F80F2000F06D
:100A500005F800F02BF8002080BD0000B0B540F292
:100A6000AC12C2F2000240F25C011278C2F2000144
:100A70004FF47A730968B3FBF2F20446B1FBF2F16A
:100A8000084601F089F90F2C4FF001050CD858B930
:100A90004FF0FF3021460022002500F033F840F2ED
:100AA000B010C2F2000004602846B0BD82B0002041
:100AB00043F640010190C4F202014A6842F48042C8
:100AC0004A604A6802F480420192019A00900868E4
:100AD00040F080500860086800F080500090009856
:100AE00002B07047002848BF704700F01F01012284
:100AF00002FA01F14EF200124009CEF2000242F871
:100B00002010704710B54EF60C5CCEF2000CDCF8ED
:100B10000030C3F3022E8EF00704042C28BF0424F7
:100B2000BEF103034FF0FF3E0EFA04F438BF00237A
:100B3000A14399400EFA03F39A4300F00F03043BDC
:100B40001143634409010C3300F16042B0F1FF3FEF
:100B5000C8BF02F56443197010BD00004EF60C5179
:100B6000CEF200010A684FF6FF031A4060F30A2232
:100B700042F0806040F0FD700860704770470000F0
:100B8000026800205162704770B5D0F800E0DEF8CE
:100B90002400D9B1DEF82830B1F1010C00EB134389
:100BA0000CD00EF5807100205FFA8CF451F8045FD0
:100BB0000130C6B2A64203EB1543F7D343EA024025
:100BC0000EEB8C01C1F80401002070BD40EA024028
:100BD000CEF82800002070BD80B5D0F8080502F0DE
:100BE000D7FB80BD80B501EBC102D0F8083500EB22
:100BF0008200C26C184602F035FB80BD80B501EB67
:100C0000C102D0F8083500EB8200D0F88C221846DB
:100C100002F082FB80BD000080B5D0F8080502F02C
:100C2000B9FB80BD10B50446080601F00F0000EBCB
:100C3000C00104EB810205D402F51F71002382F884
:100C40007D3204E0012302F13C0182F83D3094F84A
:100C5000BC240870012A04BF022010BD20680122B4
:100C600084F8BC2403F048F9002084F8BC0410BDCB
:100C7000B0B54268044601F00F00904284BF0120E5
:100C8000B0BD090609D400EBC00104EB810202F5F6
:100C90001F71002382F87D3208E000EBC00104EBF5
:100CA0008102012302F13C0182F83D3094F8BC241A
:100CB0000025012A8D70087004BF0220B0BD206895
:100CC000012284F8BC2403F021FB284684F8BC549C
:100CD000B0BD0000B0B50546080601F00F0000EBFE
:100CE000C00105EB810C05D40CF51F7100248CF8B4
:100CF0007D4204E001240CF13C018CF83D404C782D
:100D00000870002CCA600B7118BF0881022B04BF49
:100D10000020487195F8BC04012804BF0220B0BD32
:100D20002868012285F8BC2403F010F8002085F81B
:100D3000BC04B0BD80B501F00F0C0CEBCC0100EB96
:100D4000810ECEF894320023CEF89C328EF87D329C
:100D50000369CEF88C22012B8EF87CC208BFCEF836
:100D6000902200680EF51F71DAB2BCF1000F03D0BB
:100D700003F012FB002080BD03F01CFA002080BDB0
:100D8000B0B50446406801F00F05854284BF0120DC
:100D9000B0BD080609D401EBC10004EB800000F5EA
:100DA0001F71002280F87D2208E005EBC50004EBEE
:100DB0008000012200F13C0180F83D2094F8BC0441
:100DC000012201288A700D7004BF0220B0BD206886
:100DD00084F8BC2403F0C2FA2DB92068217C04F207
:100DE000C44203F065FA002084F8BC04B0BD0000E2
:100DF00010B501F00F0C0CEBCC0100EB810E71462D
:100E000001F83CCF8B6100230B62036901244C7015
:100E1000012B0A6108BFCEF850200068DAB2BCF19D
:100E2000000F03D003F0B8FA002010BD03F0C2F9A0
:100E3000002010BD2DE9F04F89B00568074628460F
:100E400003F014FC10B109B0BDE8F08F386803F06E
:100E50003BFC0028F7D0D5F80808C0F30D2138680E
:100E6000C7F8FC1403F030FC800704D538684169EA
:100E700001F002014161386805F50061039103F05A
:100E800023FCC00606953CD53868816921F0100125
:100E900081612C6AC4F34340062804F00F0519D081
:100EA000022828D147F6F07014EA000823D005EB99
:100EB000C50007EB8006D6F88C124FEA1814069886
:100EC000224603F005FCD6F88C0200EB1810C6F899
:100ED0008C0207E0069807F2C441082203F0F8FBF1
:100EE000C4F30A1405EBC50007EB8000D0F89C1290
:100EF0002144C0F89C123868816941F01001816179
:100F0000069D386803F0E0FB0003089740F1EC8091
:100F1000386803F0B7FB002800F0E680064607F2C9
:100F2000C4404FF430644FF000084FF0000B0790BE
:100F30001AE000BF2819022181605FEA8A6042BF7F
:100F4000281920218160089F5FEA8A4042BF281942
:100F50004FF4005181600BF1010B760804F120047D
:100F600008F1240800F0C080F007F4D038685FFA78
:100F70008BF9494603F0A0FB8246C0075ED02819D2
:100F800001218160089F38682118036C8A683F69D5
:100F9000012F2AD1170736D4970678D412F0280FDC
:100FA0004CD143F20B07C4F65477BB4202D312F480
:100FB000004231D1089FB8F1000F07EB0802D2F8C8
:100FC000983209696FF3DF41A3EB0101C2F89C126B
:100FD00040F08880D2F89432002B00F07E80D2F866
:100FE0008C020844C2F88C027BE043F20B07C4F683
:100FF0005477FF37BB4212D110040DD4900644BF82
:101000002020886016E043F20B00C4F6547083423F
:1010100014D312F4004011D04FF4004038E0B8F17E
:10102000000F07D10899D1F8941219B9079A002135
:1010300003F03EF908984946FFF7E0FD5FEA0A70C1
:101040002AD5281908218160089843F20B0200680C
:10105000C4F65472056C20448168571EBD4205D900
:1010600011F400411CBF4FF400418160089800F06A
:10107000C1FBBD42069D0FD90898006901280BD11C
:101080000898079A0068012103F012F904E0202073
:1010900088605FEA0A70D4D45FEACA6042BF281948
:1010A000102181605FEA8A707FF547AF68690006AA
:1010B00004D50399486840F480604860089840442B
:1010C00090F87F1201297FF435AF002180F87F125C
:1010D0000898494600F072FA2CE7079A012103F0BC
:1010E000E7F8089F3846A6E7386803F0EDFA4003B2
:1010F00040F1D5800898006803F0BCFA002800F0A1
:10110000CE80824605F5106002900898002700F214
:10111000C440019006E000BF5FEA5A0A07F10107E8
:1011200000F0BD805FEACA70F6D0089DF9B2286869
:10113000079103F0AFFA029E0446C00724D0039A39
:1011400007F00F00516B012303FA00F021EA0000C1
:10115000506306EB471083602869012810D107EB24
:10116000C70005EB8000D0E912121144C1643FB9F9
:10117000406D28B92868019A012103F099F800BF51
:1011800007992846FFF72EFD200742BF06EB4710C0
:1011900008218160E00642BF06EB47101021816004
:1011A000600642BF06EB471040218160A00715D5BD
:1011B0000698394603F024FA07EBC70005EB8000D8
:1011C00010F83F1F012905D1002101700799284619
:1011D00000F0EEF906EB471002218160069D200623
:1011E0009AD5089907EBC70001EB800BD94659F84F
:1011F000540FC84658F8081F88428DD3089A411AE0
:1012000013685BF8482F03EB4710914288BF1146E3
:101210000593D0F81829033192B2B2EB910F29D37C
:1012200000F510600BF10405049000BFD8F8000031
:10123000D9F8001081421DD9DBF800200C1A08985B
:1012400094422968067C88BF14460598079AA3B281
:10125000009603F033FB2868D8F80010204428607B
:101260000819C8F800000498E11C806980B2B0EB4E
:10127000910FDBD2D9F80000D8F80010069D884203
:101280003FF64AAF059B07F00F00D3F83418012250
:1012900002FA00F021EA0000C3F834083CE7DDF868
:1012A0002080D8F8000003F00FFA039CB0F1FF3F54
:1012B00018DC606820F00100606098F8F4040128F0
:1012C00007D1002088F8F40440460021FFF756FCBF
:1012D00002E0404600F06EFAD8F80000416901F0E3
:1012E00000414161D8F8000003F0EEF900050BD58C
:1012F000A068C00702D0404600F0A6FAD8F8000067
:10130000416901F400614161D8F8000003F0DCF9A3
:10131000C00453D56068102120F001006060D8F847
:10132000000003F06DF9D8F80400D0B105F51061A4
:101330004FF67F328A600B68013823F400130B608C
:10134000C1F80822D1F8003223F40013C1F80032AA
:10135000D1F8003243F00063C1F8003201F12001FE
:10136000E8D1E06940F00110E061D8F8300040B108
:10137000D4F8840040F00B00C4F8840004F1440069
:1013800006E0606942F22B010843606104F110003D
:10139000016808F2C44241F00B010160206820F4AA
:1013A000FE602060D8F8000098F8101002F080FF6E
:1013B000D8F80000416901F480514161D8F800007B
:1013C00003F082F980041CD5D8F8000002F004FD77
:1013D000D8F8000003F03CF9D8F80040C8F80C0039
:1013E00000F0FCFA98F80C200146204603F0DAF9E8
:1013F000404600F0CDF9D8F80000416901F40051F1
:101400004161D8F8000003F05FF9000708D54046B5
:1014100000F0D6F9D8F80000416901F008014161F7
:10142000D8F8000003F050F9000628D5069988691D
:1014300020F080008861D8F8040002281FD308F249
:10144000A324012507E000BFD8F804000135854238
:1014500004F1240413D220780128F5D105F00F00FF
:1014600000EBC00008EB80022806D8F8000002F16B
:101470003C0158BF02F51F7103F076F8E4E7D8F895
:10148000000003F021F9C0022FD5D8F8040002288B
:1014900025D3069808F1640500F51264012601279A
:1014A00008E000BFD8F8040001372034874205F176
:1014B000240514D2206829780129F3D1B0F1FF3F27
:1014C000F0DC07F00F0000EBC00008EB8001D8F85B
:1014D00000003C3105F8016C03F046F8E2E7D8F86B
:1014E0000000416901F480114161D8F8000003F067
:1014F000EBF8800235D5D8F80400069D02282AD3DF
:10150000013805F5326108F52972012306E000BFB4
:10151000013801F1200102F124021CD00F68167875
:10152000012EF5D1B7F1FF3FF2DCD8F8FC6407F4E7
:10153000803706F00106B742EAD102F8013CAF69F4
:1015400047F08007AF616F693F06E1D403994868AF
:1015500040F400704860D8F80000416901F40011BF
:101560004161D8F8000003F0AFF8400008D54046CC
:10157000FFF732FBD8F80000416901F0804141617A
:10158000D8F8000003F0A0F840077FF55CACD8F86D
:1015900000004468600702D54046FFF73DFBD8F8DD
:1015A000000041682143416009B0BDE8F08F0000B0
:1015B00080B5D0F8080501F045FF80BD80B5D0F8B2
:1015C000080501F053FF80BD2DE9F04F8BB098B3B3
:1015D0000446056890F8BD0428B9002084F8BC04CE
:1015E000204600F091F8032084F8BD04E86BC005A4
:1015F0005CBF00202061206802F0D4FD206804F167
:101600001C0A0A90D4E90C5004F1040E9AE8C007B1
:101610009EE80E58CDE9085003A880E8C0030A9858
:101620008DE80058CDF81CA002F0E6FB30B1022096
:1016300084F8BD04012562E0012560E020680021F6
:10164000002503F06BF8616861B3012000230022DC
:1016500003EBC30304EB830787F83C20D3B20132CA
:10166000A7F84430D3B2994287F83D0087F840503C
:10167000C7E912557D65EBD800200023002200BF8A
:1016800003EBC30304EB830787F87C220132D3B258
:10169000994287F87D0287F88002C7E9A200C7F85F
:1016A0009402EDD8A06822680A90D4E90C5004F1A5
:1016B000140E04F1240AD4E903379EE840589AE84E
:1016C0000007CDE9085002A880E8005810460A9AA1
:1016D000CDE90076CDE90589CDF81CA002F06EFCBD
:1016E00020B1022084F8BD04012508E00025012076
:1016F00084F8385084F8BD04206802F04FFC284676
:101700000BB0BDE8F08F0000B0B586B000680024D3
:10171000B0F1A04F0594CDE903440294019401D0A7
:1017200006B0B0BD43F630050094C4F20205286847
:1017300001A940F001002860286800F00100009035
:1017400000984FF4C05001900220CDE9020403201C
:1017500004900A2005900020C4F20200FFF772F8FE
:101760006868002140F08000686000946869002289
:1017700040F480406861686900F4804000900098FF
:101780004320FFF7BFF94320FFF7ACF906B0B0BD27
:1017900010B50446C068022818BFFEF773FED4F8DF
:1017A0000805012101F0E6FED4F8080501F098FED5
:1017B00010BD000080B5D0F8080501F0C3FE80BD63
:1017C00080B5D0F8080501F0C7FE80BD10B504460D
:1017D00090F8BC04012804BF022010BD012084F849
:1017E000BC0484F83810206802F0CAFF002084F896
:1017F000BC0410BD80B5D0F8082500F2C4411046E5
:1018000001F0CEFE80BD000010B5044690F8BC0487
:10181000012804BF022010BDA16A2068012201290D
:1018200084F8BC2406D1A169012903D0816B41F45D
:101830008031816302F0DCFE206802F09FFB002013
:1018400084F8BC0410BD000010B50446D0F80805AB
:1018500001F0F6FE2068D0F8001E41F00101C0F84A
:10186000001E206A002808BF10BD4EF61050CEF2B0
:101870000000016841F00601016010BD2DE9F04152
:10188000002800F08B8043F60808C4F202080446E2
:10189000D8F8F8030D4600F00700884207D288F810
:1018A000F853D8F8F80300F00700A84276D1206872
:1018B000810717D5410705D5D8F8001041F4E0514C
:1018C000C8F80010010705D5D8F8001041F46041B0
:1018D000C8F80010D8F80010A26821F0F0011143F8
:1018E000C8F80010C0073FD1D8F8F80300F007008F
:1018F000A84207D988F8F853D8F8F80300F0070091
:10190000A8424BD12068410707D5D8F80010E268FB
:1019100021F4E0511143C8F80010000708D5D8F8A9
:101920000000216920F4604040EAC100C8F80000CE
:1019300000F05AF8D8F8001044F6C052C1F3031171
:10194000C0F60002515C40F25C0220FA01F140F264
:10195000B010C2F200000068C2F200021160FFF78E
:101960007DF80020BDE8F0816068811E022907D261
:1019700058F8081C89015CBF0120BDE8F08110E027
:10198000012807D158F8081C89035CBF0120BDE875
:10199000F08106E058F8081C890702D40120BDE850
:1019A000F081D8F8001021F003010843C8F80000C6
:1019B000FFF724F8064641F2883700BFD8F8000048
:1019C000616800F00C00B0EB810F8DD0FFF716F8C6
:1019D000801BB842F2D90320BDE8F08140F25C00E0
:1019E000C2F200000068704710B543F60404C4F268
:1019F0000204606800F00C0008280AD0042819BF0F
:101A000042F20040C0F2F40047F64000C0F27D1000
:101A100010BD206821682368490247F64001C0F2E2
:101A20007D1100F03F02C3F388105CBF42F2004119
:101A3000C0F2F401A1FB00010023FEF73BFC21688A
:101A40000222C1F3014102EB4101B0FBF1F010BDF4
:101A50002DE9F04182B0002800F0A2800446007811
:101A600043F60006C007C4F2020643D0B06800F097
:101A70000C00042805D1306880033BD56068C8BBE2
:101A80008EE0B06800F00C00082802D170684002B7
:101A9000F1D46568B5F5A02F0AD0B5F5803F0BD01D
:101AA000306820F480303060306820F4802006E018
:101AB000306840F480203060306840F4803030601E
:101AC000FEF79CFF002D054611D000BF3068800353
:101AD00010D4FEF793FF401B6428F7D922E100BF22
:101AE000FEF78CFF401B64284FF0030055D8306888
:101AF0008003F5D4207880071AD5B06810F00C0F59
:101B000009D0B06800F00C00082840F08A807068A6
:101B1000400200F186803068800702D5E068012825
:101B20003ED13068216920F0F80040EAC100306001
:101B30002078000738D4207840074CD4A5695DB3DD
:101B4000B06800F00C00082840F09E80012D27D0DE
:101B50007068E16900F480028A4221D1216A00F0B4
:101B60003F028A421CD147F6C071626A0140B1EB64
:101B7000821F15D1A26A0023CFF6FF7303EBC23296
:101B800000F440316FF30F02914209D1E16A00F095
:101B90007060B0EB016F03D1002002B0BDE8F081AE
:101BA000012002B0BDE8F0816069002840F2000029
:101BB000C4F2472057D00121C0F8801EFEF71EFF57
:101BC000054600BF706F8007B5D4FEF717FF401BB6
:101BD0000228F7D9A6E0306C10F080580AD1002016
:101BE0000190306C40F080503064306C00F08050D8
:101BF0000190019847F20007C4F200073868C00559
:101C000024D4386840F480703860FEF7F7FE05464B
:101C10003868C0051AD4FEF7F1FE401B0228F7D938
:101C200080E0E068002851D00020C4F24720012164
:101C30000160FEF7E3FE0546306880073FF571AFAF
:101C4000FEF7DCFE401B0228F6D96BE0A568052DE7
:101C500050D0012D52D0306F20F001003067306F2E
:101C600020F004004DE00021C0F8801EFEF7C6FE03
:101C7000054600BF706F80077FF55DAFFEF7BEFEC3
:101C8000401B0228F6D94DE00027C4F24727002068
:101C90003866FEF7B3FE022D05460BD13068800191
:101CA00058D5FEF7ABFE401B02284FF00300F5D9D4
:101CB00073E700BF306880017FF56EAFFEF79EFED0
:101CC000401B02284FF00300F4D966E70020C4F25D
:101CD000472000210160FEF791FE0546306880072D
:101CE0007FF526AFFEF78AFE401B02284FF0030067
:101CF000F4D952E7306F40F004003067306F40F0A5
:101D000001003067FEF77AFE002D054641F2883764
:101D100014D000BF306F800713D4FEF76FFE401B56
:101D2000B842F7D9032002B0BDE8F081FEF766FEA5
:101D3000401BB8424FF003003FF62FAF306F8007D3
:101D4000F4D4B8F1000F7FF4F9AE306C20F080507D
:101D50003064F3E604F11C052FCD08430021CFF6D3
:101D6000FF7140EA821001EBC3316FF30F0140EACB
:101D700005600843706001203866FEF73FFE0446A8
:101D8000306880013FF508AFFEF738FE001B0228DF
:101D90004FF00300F4D900E7411E0020B0EB116FB3
:101DA0001CBF012070474EF21002CEF200025160BB
:101DB0004EF62351CEF20001F0230B700721906004
:101DC00011607047B0B590F83C20012A04BF022092
:101DD000B0BD01F108053CCDD1E900CE23F47C5320
:101DE00022F470521A432EF4F0431A432CF4E043C9
:101DF0001A4324F4C0431A432A43C96922F4804297
:101E0000036811435964002180F83C100846B0BDB6
:101E100010B590F83C20012A4FF0020240D0012377
:101E200080F83C3080F83D200268D2F804E0D2F817
:101E300008C00C682EF07003234340F6FF34C4F250
:101E40000004A24253600FDCB2F1804F1DD040F27B
:101E50000043C4F200039A4217D040F60003C4F2D4
:101E600000039A4211D015E040F60043C4F200038B
:101E70009A420AD044F20003C4F201039A4204D009
:101E80000023C4F201039A4204D149682CF0800374
:101E9000194391600121002280F83D1080F83C2018
:101EA000104610BD002804BF0120704710B504463D
:101EB00090F83D0028B9002084F83C00204600F04E
:101EC0001FF8022084F83D002068211D00F022FE4A
:101ED000012084F8460084F83E0084F83F0084F82E
:101EE000400084F8410084F8420084F8430084F8FC
:101EF000440084F8450084F83D00002010BD000037
:101F0000F0B581B0044600680021C4F201018842A6
:101F100001D001B0F0BD002043F644010090C4F2AE
:101F200002010A6841F2DC2542F001020A600968F8
:101F3000C2F2000501F001010091009946F2A041B2
:101F4000C4F202014FF04062402385E80E0005F123
:101F50000C014FF4806C4FF4006E4FF400564FF4B8
:101F6000807781E80150C5E908002846C5E9066781
:101F7000FEF766FB002818BFFEF784FAE562AC6343
:101F800001B0F0BD80B590F83C20012A4FF002026C
:101F900000F0C280012380F83C3080F83D20D0F86A
:101FA00000C04FF67772DCF8083023EA0202CCF862
:101FB00008200B684F2B28DC1F2B43DD202B44D03F
:101FC000302B42D0402B40F0A980D1F804E0C96802
:101FD000DCF82030DCF8202022F00102CCF82020B0
:101FE000DCF8182022F0F00242EA011123F00A0284
:101FF00042EA0E02CCF81810CCF82020DCF80810C9
:1020000041F0470121F030017DE06F2B25DDB3F574
:10201000005F46D0B3F5805F77D0702B7ED1D1E9D9
:1020200001E3C968DCF8082043EA0E0322F47F428A
:1020300043EA01211143CCF80810DCF8081041F004
:10204000770160E00BB1102B68D1DCF8081021F0AB
:102050007001194341F0070155E0502B34D0602B3B
:102060005CD1D1F804E0C968DCF8203023F010031B
:10207000CCF82030DCF81830DCF8202023F4704352
:1020800022F0A00243EA013142EA0E12CCF8181005
:10209000CCF82020DCF8081041F0670121F0100195
:1020A00031E0D1E901E3C968DCF8082043EA0E0316
:1020B00022F47F4243EA01211143CCF80810DCF8F6
:1020C000081041F480411EE0D1F804E0C968DCF852
:1020D0002030DCF8202022F00102CCF82020DCF8AF
:1020E000182022F0F00242EA011123F00A0242EA2B
:1020F0000E02CCF81810CCF82020DCF8081041F0C3
:10210000570121F02001CCF808100022012180F8AD
:102110003D10002180F83C10104680BD0122F5E7FB
:1021200070470000F0B590F83C30012B04BF02204E
:10213000F0BD4FEAB2020123032A80F83C3000F2DE
:10214000E580DFE802F0023975B0036800271A6AFB
:10215000C4F2010722F001021A621E6A1A465C6884
:1021600052F818CF8D6826F00206BB4245EA060EEB
:1021700006D1CD682EF00C0625F0040545EA060EC2
:102180000E68BB4205D1D1E9055724F440742C43B5
:102190003C432CF0730737435C609F614F680969CB
:1021A0005F63C3F820E09F6947F008079F619F695C
:1021B00027F004079F61A5E0036800251A6AC4F2AE
:1021C000010522F010021A621C6A1A46D3F804E0D4
:1021D00052F818CF8E6824F02004AB4244EA06146B
:1021E00007D1CE686FF0400724F0C00407EA061656
:1021F00034430E68AB4207D1D1E905572EF4406E47
:102200004EEA850545EA870E2CF4E64747EA06279D
:10221000C3F804E09F614F6809699F631C629F696E
:1022200047F400679F619F6927F480679F6168E0BA
:10223000036800251A6AC4F2010522F480721A624A
:102240001C6A1A46D3F804E052F81CCF8E6824F4B6
:102250000074AB4244EA062407D1CE6840F2FF473F
:10226000360224F44064BE4334430E68AB4207D1C7
:10227000D1E905572EF4405E4EEA051545EA071EE2
:102280002CF073073743C3F804E0DF614F68096936
:10229000DF631C62DF6947F00807DF61DF6927F051
:1022A0000407DF612EE0036800271A6AC4F2010701
:1022B00022F480521A621A46D3F820C05D6852F8A0
:1022C0001C4FD1F800E08E68BB4204D14F6925F461
:1022D000804545EA87152CF4005747EA063724F471
:1022E000E64646EA0E265D60DE614E6809691E64B8
:1022F0001F62DF6947F40067DF61DF6927F48067E9
:10230000DF6109021368194300231160002180F87E
:102310003C101846F0BD0000002804BF01207047A3
:1023200010B5044690F83D0028B9002084F83C0020
:10233000204600F01FF8022084F83D002068211D8F
:1023400000F0E8FB012084F8460084F83E0084F8A1
:102350003F0084F8400084F8410084F8420084F88B
:10236000430084F8440084F8450084F83D000020D0
:1023700010BD00007047000080B541F64800C2F271
:102380000000082100F01EF980BD00007047000029
:10239000B0B50C46054641B1082C09D0042C14BF39
:1023A00005F1410005F13F0004E005F13E0001E0C8
:1023B00005F140000078022804BF0220B0BD44B1FE
:1023C000082C09D0042C14BF05F1410005F13F0091
:1023D00004E005F13E0001E005F14000007801282D
:1023E00001D112B90BB10120B0BD022044B1082CBB
:1023F00009D0042C14BF85F8410085F83F0004E0A3
:1024000085F83E0001E085F840004FEAB40003285B
:1024100023D8DFE800F002274768686A42F6F13106
:10242000C0F60001C163686A42F65941C0F6000176
:102430000164686A42F69141D5F800C0C0F6000117
:10244000C164686A0CF1340C11466246FEF798F9D3
:102450000028C8D14FF4007065E001200021002958
:1024600069D1B0BDA86A42F6F131C0F60001C1637E
:10247000A86A42F65941C0F600010164A86A42F612
:102480009141D5F800C0C0F60001C164A86A0CF102
:10249000380C11466246FEF773F90028A3D14FF4B9
:1024A000806040E0E86A42F6F131C0F60001C163A5
:1024B000E86A42F65941C0F600010164E86A42F652
:1024C0009141D5F800C0C0F60001C164E86A0CF182
:1024D0003C0C11466246FEF753F900287FF483AFA7
:1024E0004FF400601FE0286B42F6F131C0F60001A6
:1024F000C163286B42F65941C0F600010164286BA4
:1025000042F69141D5F800C0C0F60001C164286BC5
:102510000CF1400C11466246FEF732F900287FF4B8
:1025200062AF4FF480502968CA681043C860002029
:102530000121002995D0296804F01F0201230D6AAA
:10254000934025EA03020A620D6A4422C4F20102A2
:102550002B43A2F14405A9420B6203D1136843F453
:102560000043136040F6FF32C4F2000291420DDCDA
:10257000B1F1804F1BD040F20042C4F20002914200
:1025800015D040F60002C4F200020EE040F6004210
:10259000C4F2000291420AD044F20002C4F20102E5
:1025A000914204D00022C4F20102914205D18A680E
:1025B00002F00702062A08BFB0BD0A6842F0010215
:1025C0000A60B0BDB0B50D464FEAB101032904461B
:1025D0000AD8DFE801F0020C131A204650F8241B39
:1025E000CA6822F4007216E00120002119E020469A
:1025F00050F8281BCA6822F480620CE0204650F88C
:102600002C1BCA6822F4006205E0204650F8301BFB
:10261000CA6822F48052CA600068FDF739FF0020C2
:102620000121002908BFB0BD216805F01F02012368
:1026300093400A6A40F2000C9A430A62C4F2010C09
:102640000A6A61450A620ED1DCF8202041F21113BA
:102650001A4208D10A6A40F244431A4203D14A6C32
:1026600022F400424A640A6A41F211131A4208D164
:102670000A6A40F244431A4203D10A6822F0010276
:102680000A600121082D09D0042D0AD0002D04BFB5
:1026900084F83E10B0BD84F84110B0BD84F84010FD
:1026A000B0BD84F83F10B0BDFEE700002DE9F04F4B
:1026B00083B040F2801640F210174FF0000BC2F2C8
:1026C0000006C2F200074FF000094FF0000A002494
:1026D000002500BF06EBCB0232F8041F56F83B0082
:1026E000019200224FF00008FEF782F90120FEF768
:1026F00095F84E46CDF808A007EBC80157F838000A
:102700008988FEF76FF9B0FA80F04009C9F120031B
:1027100019F1010120FA03F34AF1000AB9F120028C
:1027200058BF00FA02F300FA09F008F1010858BF97
:1027300000201D430443B8F10E0F8946DCD1B14699
:1027400016F10E0940F280160199C2F2000656F801
:102750003B000988DDF808A04FF001024AF1000AA9
:10276000FEF746F90BF1010BBBF1050FB2D1204684
:10277000294603B0BDE8F08F80B582B000200190FB
:1027800043F63000C4F202000168002241F48001E7
:1027900001600068002100F480000190019845204C
:1027A000FEF7B0F94520FEF79DF902B080BD0000AC
:1027B0002DE9F04186B0002643F630000596CDE9BC
:1027C0000366CDE901660096C4F20200016840F29A
:1027D000004441F0040101600168C4F2020401F008
:1027E00004010091009900960168002241F08001E7
:1027F000016001684FF4B95801F08001009100991F
:102800000096016841F001010160016801F00101D9
:10281000009100990096016841F002010160006892
:102820004FF4B95100F00200009000982046FEF7E6
:10283000DFF84FF4005001ADCDE90106012704F5A2
:10284000806029460397FDF7FDFF48F2FF3001A99C
:10285000C1C1A4F580602946FDF7F4FF992001A9C4
:10286000C1C120462946FDF7EDFF20462946CDE9A6
:102870000187CDE90366FDF7E5FF06B0BDE8F0810D
:1028800070B59CB0002541F64800C4F20105002156
:10289000C2F2000068221591CDE91311CDE91111A2
:1028A000CDE90F11CDE90D11CDE90B11CDE90911DC
:1028B000CDE90711CDE90511CDE90311CDE90111EC
:1028C000C0E90051C0E90212C0E904118161FFF7BB
:1028D000E9FA002818BFFDF7D5FD4FF4805012909B
:1028E00041F64800C2F2000012A9FFF74BFB002896
:1028F00018BFFDF7C7FD41F64800C2F20000FFF720
:102900000BFD002818BFFDF7BDFD41F6480000246F
:10291000C2F2000010A9CDE91044FFF779FA0028AF
:1029200018BFFDF7AFFD602009904520CDE90A04EE
:1029300041F64800C2F2000009A90822CDE90C4482
:10294000CDE90E44FFF7EEFB002818BFFDF79AFD16
:1029500041F648044FF40050C2F2000400260690ED
:1029600001A920460596CDE90366CDE901660896E2
:10297000FFF728FA002818BFFDF784FD20681B9692
:10298000A842CDE919661896179601D01CB070BD03
:10299000002043F630011690C4F202010A6842F0AA
:1029A00001020A60096801F00101169116994FF4BD
:1029B000806117910221CDE918101A9001201B9017
:1029C00005F5803017A9FDF73DFF1CB070BD000074
:1029D00080B541F2000040F20001C2F20000C2F2F4
:1029E0000001002200F002FC002818BFFDF74AFD9C
:1029F00041F2000040F27401C2F20000C2F2000194
:102A000000F046FE002818BFFDF73CFD41F2000033
:102A1000C2F2000000F068FE002818BFFDF732FD8A
:102A200080BD0000FEE70000FEE7000080B541F237
:102A30003C30C2F20000FEF7FDF980BD7047000097
:102A40007047000080B5FDF7DFFF80BD70B592B024
:102A500006AC20463021FDF7A5FC002543F64000DA
:102A60000595CDE90355CDE901550095C4F2020065
:102A70000168022641F080510160006800F080503A
:102A80000090009847F200000095C4F20000016831
:102A900066F38F310160006800F4404000900098B8
:102AA000012006904FF4803007904FF480000D9085
:102AB00019200E904FF4A8700F900420109007205A
:102AC000119020460C96FEF7C3FF20B1EFF3108063
:102AD00072B600BFFEE70F20CDE901064FF480502B
:102AE000CDE9040501A802210395FEF7C7FE20B138
:102AF000EFF3108072B600BFFEE712B070BD0000A9
:102B00004EF68850CEF20000016841F47001016079
:102B10007047000010B540F2FF7E0368C4F2000E5B
:102B200040F2000C7045C4F2010C0ADD40F60002D0
:102B3000C4F2000290420DD060450BD040F6004236
:102B400004E0B0F1804F05D040F20042C4F2000230
:102B5000904203D14A6823F0700313434FF6FF728B
:102B6000C4F20002904209DC704512DCB0F1804FE3
:102B700026D040F20042C4F200021FE044F2FF32CD
:102B8000C4F2010290420FDC604519D044F2000209
:102B900012E040F60002C4F20002904210D040F66B
:102BA0000042C4F2000209E044F60002C4F201024D
:102BB000904205D044F20042C4F20102904203D197
:102BC000CA6823F44073134323F080024B69D1F8A1
:102BD00000E08C681A4360450260C462C0F828E0D7
:102BE00002D10969CCF830100121416110BD00000B
:102BF00010B5846B616A814211D0A16A814216D0FE
:102C0000E16A81421BD0216B81421FD1C06908213A
:102C10000028217704BF012084F8410016E0C16933
:102C200001200029207708BF84F83E000EE0C0692B
:102C30000221217750B9012084F83F0006E0C069E5
:102C40000421217710B9012084F840002046FFF7C5
:102C500093FB0020207710BD10B5846B616A814220
:102C60000AD0A16A814209D0E16A814208D0216B71
:102C7000814207D1082004E0012002E0022000E0A8
:102C8000042020772046FFF781FB0020207710BD2D
:102C900010B5846B616A81420CD0A16A81420ED06A
:102CA000E16A814211D0216B814214D0012084F865
:102CB0003D0015E00120207784F83E0010E002205E
:102CC0002077012084F83F000AE0042020770120CB
:102CD00084F8400004E008202077012084F84100B7
:102CE0002046FFF71DFA0020207710BD80B5D0F8F0
:102CF000B82252689047002818BF032080BD00000A
:102D0000002070470020704780B513460A46002116
:102D100000F0D4FB002080BD80B513460A46002198
:102D200000F098FC002080BD10B58021044600F022
:102D300063FC2046002100F05FFC10BD80B505213A
:102D4000C0F8941200210022002300F0B7FB0020FD
:102D500080BD000080B513460A460221C0F89412D7
:102D60000021C0E9063300F075FC002080BD0000A2
:102D700080B50421C0F8941200210022002300F045
:102D800069FC002080BD000010B540F6EC54C2F292
:102D900000040A4602A0214600F0AEF8204610BD0D
:102DA00048494420436F6E666967000040F2600046
:102DB0001222C2F200000A807047000010B540F6EF
:102DC000EC54C2F200040A4602A0214600F094F836
:102DD000204610BD48494420496E7465726661639F
:102DE0006500000040F2E8000422C2F200000A8000
:102DF0007047000010B540F6EC54C2F200040A46D9
:102E000002A0214600F078F8204610BD73696E6775
:102E10006C65000010B540F6EC54C2F200040A469E
:102E200002A0214600F068F8204610BD53544D33EF
:102E3000322048756D616E20696E746572666163DB
:102E400065000000B0B547F61020C1F6FF700268BB
:102E500083684FF01A0CD218A1F800C02FD0406838
:102E600040F2EC0E6FF001014FF0370CC2F2000E91
:102E7000002300BF140F0CEB1275B2F1204F38BFC6
:102E800004F130050EEB0104023112010E29257107
:102E90006371EFD10EF1100104224FF0370C0023C3
:102EA0000CEB1074B0F1204F4FEA107538BF05F1EC
:102EB000300401F8024F0001013A4B70F0D140F2AA
:102EC000EC00C2F20000B0BD80B5B0F802C00378DB
:102ED0009C459CBF002080BD90F800E07044427883
:102EE000052A03D182788A4208BF80BD73449AB212
:102EF0006245F1D3002080BD80B5A0B303786BB1EB
:102F0000431E4FF0000C00BF93F802E00CF1010CDF
:102F1000BEF1000F03F10103F6D101E04FF0000C08
:102F20005FFA8CFC022303EB4C03138003220B702B
:102F30004A7090F800E0BEF1000F08BF80BD013874
:102F400002234FF0000C00BFDAB201F802E042F0B9
:102F5000010201F802C090F802E00233BEF1000F56
:102F600000F10100F0D180BDD0F8D412002200EBB6
:102F70008100D0F8C01200200A737047B0B58121DB
:102F8000044600F05DF9D4F8D4020025A56304EBF3
:102F90008000D0F8C00238B100F0D0FED4F8D402DE
:102FA00004EB8000C0F8C0520020B0BD014640F2E2
:102FB000DC000A22C2F200000A80704710B5044605
:102FC00040F2AC00C2F200008121FFF77DFF002833
:102FD0001CBF0A21817140F2AC002221C2F2000024
:102FE000218010BD10B5044640F2AC00C2F20000D2
:102FF0008121FFF769FF00281CBF0721817140F282
:10300000AC002221C2F20000218010BD10B50446A0
:1030100040F2AC00C2F200008121FFF755FF00280A
:103020001CBF0A21817140F2AC002221C2F20000D3
:10303000218010BDB0B50446102000F081FED4F808
:10304000D412054604EB810000F530709DB1056097
:10305000207C0A21C4F8BC52002808BF07216187E0
:10306000204681210322042300F014FA0120208746
:1030700000202873B0BD002101600220B0BD000017
:1030800080B5D0F8D43200EB8303D3F8C0324BB113
:1030900094460A4690F89C12032901D1197B19B174
:1030A000002080BD032080BD01211973812163466A
:1030B00000F0D0FA002080BD80B582B0D0F8D422D4
:1030C00000EB8202D2F8C0320022ADF80620C3B174
:1030D0000A7812F0600216D0202A2DD14A78A2F187
:1030E000020CBCF1090F33D8DFE80CF0052C3232AA
:1030F00032323232363A191D0122FFF72BFE0022FE
:103100001DE003221BE091F801C0BCF10B0F2BD88E
:103110000022DFE80CF00614292929292D29292964
:103120003B4690F89C22032A43D10DF1060102226E
:10313000FFF710FE002202E0FFF7F6FD0322104623
:1031400002B080BD19460122FFF704FE0022F6E717
:10315000FFF7EAFD0322F2E7C87800225860EEE7A5
:10316000887800221860EAE7FFF7DEFD0322E6E731
:10317000CA78212A29D0222A33D1CA8840F21C01D8
:103180003F2A28BF3F22C2F2000126E090F89C228D
:10319000032A12D103F108010122FFF7DBFD00220F
:1031A000CDE790F89C22032A0BD188780022986002
:1031B000C5E7FFF7B9FD0322C1E7FFF7B5FD03221D
:1031C000BDE7FFF7B1FD0322B9E7CA8840F2D0019D
:1031D000C2F20001092A28BF0922FFF7BBFD002225
:1031E000ADE7FFF7A1FD0322A9E70000002804BF17
:1031F0000320704780B50023C0F8B832C0F8C4324D
:103200000029C0F8D03218BFC0F8B412012180F8EC
:103210009C12027000F0CEF880BD000080B5D0F89E
:10322000C802FDF725FD40F20032C100C0F20132B4
:1032300022FA01F1032888BF0321C8B280BD000033
:1032400080B5D0F8C802FDF7EDFC40F20032C100B5
:10325000C0F2013222FA01F1032888BF0321C8B26B
:1032600080BD0000B0B5044689B194F89C020328E3
:103270004FD1D4F8B8024269002A4AD00020C4F8DD
:10328000D40220469047002808BF0020B0BDD4F8E3
:103290009402022836D1D4E9071081420DD90B1AC5
:1032A000204611461A46E361FFF736FD204600210D
:1032B0000022002300F002F924E00FD1A16981422D
:1032C0000CD3D4F89802814208D220460021002273
:1032D0000025FFF721FDC4F89852E7E794F89C0217
:1032E000032808D1D4F8B802C16821B10020C4F87D
:1032F000D402204688472046802100F07DF92046F0
:10330000FFF71CFD94F8A00200281CBF002084F8E1
:10331000A0020020B0BD000010B5044669B194F8C9
:103320009C0203281DD1D4F8B80282690020CAB1DA
:10333000C4F8D4022046904714E0D4F8940203283D
:1033400024D1D4E95703984210D9C01AC4F85C01BB
:10335000984238BF0346204611461A46FFF7D4FC70
:1033600014E00020002808BF002010BD94F89C0243
:10337000032808D1D4F8B802016921B10020C4F8AB
:10338000D402204688472046FFF7F2FC002010BDFB
:103390000020704780B5012180F89C12D0F8B81247
:1033A00031B14A6801799047002818BF032080BDD9
:1033B000002080BD10B5017809B1002010BD41F298
:1033C0003C31C2F20001C1F80805C0F8C8124FF044
:1033D000A0400422C1E9000202200022C1E9030248
:1033E000C1E906020846C1E90822C1E90B22FEF73D
:1033F000EBF8002818BFFDF745F841F23C34C2F263
:10340000000420468021FDF7BBFB2046002140221E
:10341000FDF7BAFB204601218022FDF7B5FB002015
:1034200010BD0000D0F8C80201F07F0202EBC2021A
:1034300000EB820000F13E02090658BF00F27E2236
:103440001078704780B5D0F8D42200EB8202D2F811
:10345000B82242B190F89C32032B02D1126A02B119
:103460009047002080BD032080BD000080B5D0F8CB
:10347000D42200EB8202D2F8B82242B190F89C32FA
:10348000032B02D1526A02B19047002080BD032075
:1034900080BD000080B59446D0F8C8021A46634645
:1034A000FDF718FC40F20032C100C0F2013222FAEE
:1034B00001F1032888BF0321C8B280BD80B5D0F8D0
:1034C000C802FDF737FC40F20032C100C0F2013201
:1034D00022FA01F1032888BF0321C8B280BD000091
:1034E000F0B581B00126002580F89C62C0F89452A6
:1034F00004464560D0F8B802C4F8A45284F8A0523B
:1035000050B142683AB12046002190470546002854
:1035100018BF032500E0002520460021002240239B
:103520004027FFF7B7FF2046802100224023A4F860
:103530006461C4F86071FFF7ADFFA6842846276276
:1035400001B0F0BD90F89C12042904BF90F89D12C0
:1035500080F89C120020704780B590F89C120329D7
:1035600006D1D0F8B81219B1C969002918BF884727
:10357000002080BD024600201174704780B5D0F84D
:10358000C802FEF723F940F20032C100C0F2013256
:1035900022FA01F1032888BF0321C8B280BD0000D0
:1035A000B0B500F2AA250446284600F065F80120CF
:1035B000C4F8940294F8AA02B4F8B02200F01F01F3
:1035C0000229C4F8982207D001290AD071B92046EF
:1035D000294600F08DF8B0BD2046294600F0A0FA3B
:1035E000B0BD2046294600F061FBB0BD00F080016F
:1035F000204600F001F8B0BD80B5D0F8C802FDF754
:10360000BFFB40F20032C100C0F2013222FA01F1E8
:10361000032888BF0321C8B280BD000080B5D0F860
:10362000C802FEF7F1F840F20032C100C0F20132E8
:1036300022FA01F1032888BF0321C8B280BD00002F
:10364000014690F89C02042281F89D02002081F836
:103650009C22704780B5D0F8C802FDF7C9FB40F244
:103660000032C100C0F2013222FA01F1032888BF02
:103670000321C8B280BD00000A7802704A78427007
:103680004A8842808A888280C988C1807047000049
:1036900010B582B004460020ADF80600B1B1D4F8F0
:1036A000D42204F52E70C4F8B81250F82200C16A72
:1036B00021B10DF106008847C4F8D002D4F8D80231
:1036C0000130C4F8D802002002B010BD032002B0BF
:1036D00010BD000080B5D0F8B82212B11268904732
:1036E00080BD002080BD000080B5FFF797FF80BD42
:1036F00070B582B00D460978044611F060010FD014
:10370000402901D020292ED1D4F8D402294604EB37
:103710008000D0F8B80282682046904705462BE02A
:10372000687809283BD8DFE800F0052A3A443A5384
:103730006B3A839594F89C020138022800F2A78026
:10374000E888022840F0F380D4F8A402032200287D
:1037500008BF0122214641F80C2F20460222FFF724
:10376000F9FA002508E020468021FFF745FF2046B2
:1037700000210025FFF740FF284602B070BD94F8F5
:103780009C020138022800F28C80688800250128FC
:10379000F2D12046C4F8A452FFF7EAFAECE720463B
:1037A0008021FFF729FF204600210025FFF724FF95
:1037B000E2E76888022800F0A880012840F0AD8088
:1037C0000120C4F8A4022046FFF7D2FA0025D3E76F
:1037D000A888002851D1E88800284ED168887F2821
:1037E0004BD894F89C12032940F036812046802162
:1037F000FFF702FF204600210025FFF7FDFEBBE793
:1038000068884FF0FF3101EB102100220629ADF846
:10381000062000F25681DFE811F007009D00AA00A3
:1038200054015401B700C200D4F8B402026841E167
:10383000E88801283FD194F89C02411E022980F0BB
:1038400080800025214641F8085F20460122FFF7CD
:1038500081FA91E7688840F6E855C2F2000510F059
:10386000FE0F287031D020468021FFF7C5FE20468C
:103870000021FFF7C1FE03257EE720468021FFF7E8
:10388000BBFE204600210025FFF7B6FE74E7204668
:103890008021FFF7B1FE204600210025FFF7ACFE96
:1038A0006AE720468021FFF7A7FE20460021002579
:1038B000FFF7A2FE60E720468021FFF79DFE20462D
:1038C00000210025FFF798FE56E794F89C22C1B22C
:1038D000032A00F07380022A40F07980002900F06A
:1038E0008E8020466160FFF7F5FE0546002800F057
:1038F000C68020468021FFF77FFE20460021FFF78B
:103900007BFE022084F89C0236E7687984F8A002E6
:103910002046FFF72DFA00252EE720468021FFF7ED
:103920006BFE204600210025FFF766FE24E72046B7
:103930008021FFF761FE204600210025FFF75CFE95
:103940001AE7032851D1211D20460122FFF702FA70
:10395000002511E7217CD4F8B80200290CBF816A48
:10396000C16A0DF1060088470646022023E0C0B276
:10397000052800F2A680DFE800F003898D91959973
:10398000D4F8B402426894E0207C002840F099808A
:10399000D4F8B802416B0DF1060088478EE0207C18
:1039A000002840F08E80D4F8B802016B0DF10600BB
:1039B000884706460720707001208CE021B36068BC
:1039C00088422DD12046FFF7D3F90025D4E62046C2
:1039D0008021FFF711FE20460021FFF70DFE297818
:1039E0002046FFF783F90325C6E620468021FFF72E
:1039F00003FE204600210025FFF7FEFDBCE6204621
:103A0000FFF7B6F90025B7E6022084F89C022046AD
:103A10006160FFF76BF92046FFF7AAF90025ABE6D6
:103A2000C1B22046FFF762F9297820466160FFF7AE
:103A300051FE054600286ED020468021FFF7DCFDB0
:103A400020460021FFF7D8FD21792046FFF74EF9E7
:103A5000022084F89C028FE600F07F05204629466C
:103A600084F89E52FFF78AFD2046FFF781F9002D6A
:103A70000CBF0120022084F89C0200257CE6204631
:103A8000FFF776F9032084F89C0275E6D4F8B402B7
:103A900082680EE0D4F8B402C2680AE0D4F8B40236
:103AA000026906E0D4F8B402426902E0D4F8B40234
:103AB000826932B1207C0DF1060190470646012053
:103AC00009E020468021FFF797FD204600210026CF
:103AD000FFF792FD002090B1EA886AB1BDF80600B8
:103AE00078B1904238BF024620463146ADF80620F4
:103AF000FFF730F900253FE62046FFF739F90025AA
:103B00003AE620468021FFF777FD20460021FFF7A7
:103B100073FD002530E62046FFF72AF92CE6000069
:103B200070B50E460978357911F0600104460DD064
:103B3000402902D0202940F0848020462946FFF702
:103B4000DFF84FF0000580B1284670BD7078B8B13D
:103B5000012832D0032874D194F89C0203283ED067
:103B600002286ED1680630D16BE0D4F8B802C4F8F0
:103B7000D4528268002AE7D020463146904770BD73
:103B800094F89C0203283AD0022808BF5FEA4560F7
:103B900057D105F07F0000EB800004EB800000F1BE
:103BA00014012A0658BF00F5AA71002520460222FA
:103BB0000D60FFF7CFF8284670BD94F89C020328EB
:103BC0004AD002283DD168063BD020462946FFF75F
:103BD00013FD20468021FFF70FFD002070BD708887
:103BE00040B915F07F0005D0F08818B92046294665
:103BF000FFF702FD2046FFF7BBF8002070BD05F07F
:103C00000F0101EB810115F0800004EB81010CBF75
:103C1000B1F86411898CA1B105F07F0101EB81013C
:103C200004EB810101F11406002808BF01F5AA7612
:103C3000680631D020462946FFF7F4FB60B3012027
:103C40002BE020468021FFF7D7FC204600210025ED
:103C5000FFF7D2FC284670BD708800281CBF0020EA
:103C600070BD680603D020462946FFF7D7FA2046E4
:103C7000FFF77EF820462946FFF742F800284FF06C
:103C800000057FF461AFD4F8B802C4F8D45282685A
:103C9000002A7FF471AF57E700203060204631469C
:103CA0000222FFF757F8002070BD000070B50D46E6
:103CB0000978044611F0600118BF402913D194F827
:103CC0009C020138022803D8A88810F0FE0F16D0F5
:103CD00020468021FFF790FC204600210026FFF7B8
:103CE0008BFC304670BD2029E9D020468021FFF7AB
:103CF00083FC204600210026FFF77EFC17E0C1B2BE
:103D00002046FEF7FFFF08B103260BE0D4F8B80207
:103D10008268002AF8D00020C4F8D4022046294640
:103D200090470646E888002808BF002E01D030469C
:103D300070BD2046FFF71CF8304670BD704700008C
:103D400040F6EC70C2F200007047000080B54B787E
:103D50000A78012B02F00F031CD14FF0010CD0F8B0
:103D60001CE80CFA03F343EA0E03C0F81C3800EB1E
:103D70004210D0F800391B042BD4CB6800F510603A
:103D800091F804C001686FF3DF2343EA8C4341EAF2
:103D9000825118E04FF4803CD0F81CE80CFA03F391
:103DA00043EA0E03C0F81C3800EB4210D0F8002B99
:103DB00012040ED4CA6800F5306009796FF3DF226F
:103DC000036842EA8141194341F0805141F40041C6
:103DD0000160002080BD00000146D0F8000940F2DB
:103DE000FF729043C1F80009D1F8040840F48072D2
:103DF0000020C1F80428704782B00499DDF808C09B
:103E0000012940F64051C0F2030135D1826B4FF6D3
:103E1000BF7322F480328263C268CFF6BD731A404A
:103E2000C260C2680B9B22F44012012BC26003D116
:103E3000C26842F48012C26000220092009A0132ED
:103E40000092009A8A423AD80269B2F1FF3FF5DC4B
:103E500000220092026942F001020261009A0132DE
:103E60000092009A8A422AD80269D207F6D100212C
:103E7000BCF1010F3CD133E0C268089B42F0400224
:103E8000C2600022019200BF019A01320192019AA0
:103E90008A4219D80269B2F1FF3FF5DC0022019293
:103EA000026942F001020261019A01320192019A13
:103EB0008A4209D80269D207F6D1002105E0032120
:103EC000BCF1010F14D10BE00321826B002B14BF56
:103ED00022F4803242F480328263BCF1010F07D1B8
:103EE000826842F006028260826842F020028260AC
:103EF000084602B07047000080B54B780A78012B65
:103F00002AD100EB4211D1F8003947F6000CCEF669
:103F1000334C01F51061002B4FF0010E07D50B68F3
:103F200043F000630B600B6843F080430B6002F0CA
:103F30000F02D0F83C380EFA02F29343C0F83C3836
:103F4000D0F81C3823EA0202C0F81C28086800EAEE
:103F50000C0200200A6080BD00EB421303F53061C3
:103F6000D3F800EB47F60003CEF6334303F1707C41
:103F7000BEF1FF3F4FF4803ED9DCD0E70146D0F8D8
:103F8000000E20F00300C1F8000ED1F8040820F064
:103F900002020020C1F80428704700000146D0F852
:103FA000000E20F00300C1F8000ED1F8040840F024
:103FB00002020020C1F80428704700002DE9F047F4
:103FC00082B0DDF84480DDE90C4CDDF828E000F536
:103FD00080720F25002600BF013D42F8046FFBD11F
:103FE000B8F1000F07D0826B22F400128263826B5B
:103FF00042F4002210E0D0F8042842F00202C0F897
:104000000428826B42F400128263826B22F4002245
:104010008263826B22F4802282630022C0F8002E29
:10402000D0F80028012CC0F8002806D1D0F80028CC
:10403000002B18BF42F0010203E0D0F8002842F044
:10404000030240F64055C0F20305C0F800280022E4
:10405000009200BF009A01320092009AAA4216D83C
:104060000269B2F1FF3FF5DC002200924FF4846256
:10407000026100BF009A002301320092009AAA4216
:1040800088BF012304D802699206F3D400E001231B
:1040900000220192019A01320192019AAA4214D897
:1040A0000269B2F1FF3FF5DC0022019210220261A9
:1040B000019A002401320192019AAA4288BF012488
:1040C00004D80269D206F3D400E001244FF00009BD
:1040D000C0F81098C0F81498C0F81C98B9B100F551
:1040E00010664FF67F3A002235684FF09047002A5D
:1040F00008BF4FF0006707EAE57501323560C6F882
:104100001090C6F808A0914206F12006ECD1D1B17A
:1041100000F530654FF000094FF67F3A002200BFEE
:104120002E684FF09047002A08BF4FF0006707EA5B
:10413000E67601322E60C5F81090C5F808A09142CD
:1041400005F12005ECD1D0F81018BEF1000F21F4D4
:104150008071C0F810184FF0000181616FF080414C
:10416000416103D1816941F010018161816943F6A8
:104170000002C8F23C021143BCF1000F816103D080
:10418000816941F008018161B8F1010F05D18169B0
:1041900041F0804141F00401816143EA040002B032
:1041A000BDE8F0870146806820F0010200208A60A7
:1041B00070470000F0B54B7891F800C0012B23D177
:1041C0008E6900EB4C1E00254FF6FF74DEF8107967
:1041D000CFF6F875CEF20704002E0EF510633FD02F
:1041E0003D401D611D6925401D61CD6804F10054ED
:1041F000AE4288BF8D611D6945F400251D618D6942
:104200001E692C40344333E000EB4C13D3F8100B01
:104210006FF31200C3F8100BD3F8100B6FF3DC40F0
:10422000C3F8100B8F6903F53063002F1CBFCF68F4
:104230008F61CF684FF6FF70CF611E69CEF2070025
:1042400046F400261E6100F100501E6938403043DC
:10425000012A186114D10869002818BF58610FE0BD
:104260003C401C611C6944F400241C611C692C4006
:10427000012A1C610BD14869002818BFCEF8140927
:104280004FF004411868084318600020F0BDDEF8C4
:10429000002942F00442CEF8002989690029F4D0AF
:1042A0000CF00F01012202FA01F100F63403E9E7F4
:1042B000D0F840C043F20B03C4F654739C4503D3BB
:1042C000D0F8003B002B1ED40023C0F8103BD0F8E0
:1042D000103B012943F40023C0F8103BD0F8103BF9
:1042E00043F01803C0F8103BD0F8103B43F0C04334
:1042F000C0F8103B07D1C0F8142BD0F8001B41F0D8
:104300008021C0F8001B0020704700004B780A781D
:10431000012B00EB42100DD1D0F8002922F400123D
:10432000C0F80029097901F0FE01022913D100F536
:1043300010600CE0D0F8002B22F40012C0F8002B23
:10434000097901F0FE01022905D100F5306001680C
:1043500041F0805101600020704700004B780A78DE
:10436000012B00EB421006D1D0F80019002900F50E
:10437000106106D50AE0D0F8001B002900F5306175
:1043800004D41AB1086820F080400860086840F43E
:10439000001200200A607047F0B54B7891F800C019
:1043A000012B35D1D1F818E000EB4C1400254FF665
:1043B000FF76D4F81079CFF6F875CEF20706BEF185
:1043C000000F04F510634DD03D401D611D6935405F
:1043D0001D61CD681F690EEB0506013EB6FBF5F5C4
:1043E0000026C1F6F87606EAC5453D431D617546CF
:1043F0001E696FF3DF4535431D610D79012D3AD1FB
:104400001D6925F0C0451D611D6945F0005531E06D
:1044100000EB4C13D3F8107B4FF6FF7C6FF31207C1
:10442000C3F8107BD3F8107BC0F2070C6FF3DC47A6
:10443000C3F8107B8F69CE68002F03F530634BD033
:104440003744013FB7FBF6F7BDB26E43CE6100259E
:10445000C1F6F8751C6905EAC747274306EA0C064A
:104460001F6140E03E401E611E6946F400261E6149
:104470001E6935401D61012A15D14A69002A18BFFD
:10448000C4F814290979012945D1D0F80808D4F8CD
:104490000019C0054FF0805058BF4FF0005008433E
:1044A000C4F8000937E000F510634FEA4C141D59B9
:1044B00045F004451D510D79012D33D1D0F8085830
:1044C000E658ED054FF0805558BF4FF00055354385
:1044D000E55092B30020F0BD1F6906EA0C06374391
:1044E0001F614FF400261F69012A47EA06071F6172
:1044F00003D10A69002A18BF5A61097901290AD132
:10450000D0F808081968C0054FF0805058BF4FF028
:104510000050084318604FF00441186808431860C1
:104520000020F0BDBEF1000FD4D00CF00F0101222D
:1045300002FA01F100F63403EFE75FEA0E42C9D058
:104540000B69032212FA8EF700F580504FEA0C3106
:10455000BE080122043B012E88BFBA0853F8047F2D
:10456000013A0F50FAD1B5E781B0002200924A78A3
:10457000012A1BD1097800F5106049014258B2F1B7
:10458000FF3F2EDC0A5842F000620A500A5842F0FF
:1045900080420A5042F21072009B01330093009B4C
:1045A000934221D80B58002BF6D41AE0097800F575
:1045B000306049014258B2F1FF3F12DC0A5842F024
:1045C00000620A500A5842F080420A5042F21072C9
:1045D000009B01330093009B934205D80B58002B9E
:1045E000F6D4002001B07047012001B070470000F0
:1045F0000146806840F0010200208A607047000098
:1046000081B040F64052C0F203020023009300BF85
:10461000009B01330093009B934215D80369B3F1CB
:10462000FF3FF5DC8901002320310093016100BFC9
:104630000099013100910099914205D801698906DC
:10464000F6D4002001B07047032001B0704700008D
:10465000D0F8080800F0060180074FF0020058BFAC
:104660000F20002908BF084670470000406900F08D
:1046700001007047D0F81818D0F81C08084080B224
:1046800070470000D0F81818D0F81C080840000C3B
:1046900070470000D0F810C8D0F8343801F00F028D
:1046A00023FA02F2D20100EB4110D2B2D0F808098D
:1046B00042EA0C010840704700EB4111D1F8081B99
:1046C000D0F8140808407047416980690840704775
:1046D00080B5930802F003020DD004394FF4805CDA
:1046E000012B98BF012300BF50F80CE0013B41F8BB
:1046F00004EFF9D1043172B14FF4805350F803C084
:10470000002300BF2CFA03F0013A01F8010B10045A
:1047100003F10803F6D1084680BD0000B0B5044699
:10472000C06820F0C040E06091B1012926D1E06866
:10473000002540F00050E0600120FCF76FF8606950
:10474000C00705F1010014D1312D0546F4D310E066
:10475000E068002540F08040E06000BF0120FCF7E9
:104760005DF86069C00705F1010002D0312D0546F2
:10477000F4D33238B0FA80F04009B0BD0120B0BDAA
:104780000246D0F8000801F07F0120F4FE60C2F874
:104790000008D2F8000840EA01110020C2F8001811
:1047A00070470000022A02460DD145F24030CFF694
:1047B000277043F200530844C0F20C0398420DD214
:1047C0004FF4705001E04FF41050D16821F4705153
:1047D000D160D16801430020D160704741F640604C
:1047E000CFF61B7044F240230844C0F20F039842F6
:1047F00002D24FF46050E8E7A1F5740044F68073EC
:10480000A0F51050C0F21203984202D24FF450505B
:10481000DBE7A1F183704DF22063A0F5E740C0F221
:104820001303984202D24FF44050CEE74BF260603F
:10483000CFF6E5604EF260330844C0F216039842AA
:1048400002D24FF43050C0E74DF20030CFF6CE60C8
:1048500047F240730844C0F21B03984202D24FF45F
:104860002050B2E745F6C030CFF6B36049F2C0132E
:104870000844C0F22103984202D24FF41050A4E73A
:10488000A1F1B77047F22053A0F55850C0F2380399
:10489000984202D24FF4005097E745F2E040CFF63D
:1048A000596049F6E0430144C0F241034FF4C0505F
:1048B000994238BF4FF4E05087E7000010B5DDF8AB
:1048C00008C0BCF1000F14D19BB103F1030C00F53B
:1048D000805412034FEA9C0E01230439BEF1010FEC
:1048E00088BF4FEA9C0300BF51F8040F013B1051F1
:1048F000FAD1002010BD0000FEE7000084B0FCF7F4
:1049000091F8FEF7A3F8FDF753FFFDF735FFFEF72B
:104910005FF8FDF7B5FF0020CDE9020002A844F6DC
:10492000C0380130C0F60008019040F2A815A8F187
:104930000400C2F200054FF0010B009000200CE0D3
:1049400041F20000C2F2000021460822FEF798FB67
:1049500040F2A8150520C2F200050446FDF7A6FEA8
:104960008246084300F08C8044F6C04C89464800DB
:10497000C0F6000C1BD528684BF6500145F62942BD
:10498000C0F21E51CCF28F2200FB021045F62841E6
:104990004FEAB000C0F28F21884205D800F084F8B9
:1049A00044F6C04CC0F6000C2868013028609DF821
:1049B00008200099072000BF51F8043F1446C3F1B6
:1049C00020062BFA06F70BFA03F5B3F1200258BFC5
:1049D0000BFA02F758BF002507EA090705EA0A059E
:1049E00007FA06F6DD402E43002A58BF27FA02F6E2
:1049F00027FA03F258BF002232430BFA00F344EACD
:104A00000302A0F1010008BF24EA0302431CD3D132
:104A1000019900200860C1F803000220082102ACBF
:104A20008DF8082058F82120C2F120072BFA07F64C
:104A30000BFA02F5B2F1200358BF0BFA03F658BF88
:104A4000002506EA090605EA0A0506FA07F7D54031
:104A50002F4326FA02F2002B58BF26FA03F758BF5D
:104A600000223A4303D05CF821202254013006286A
:104A70003FF766AF3F2901F10101D3D360E700BFE3
:104A8000002C4FF00000C5F800B03FF466AF0020E6
:104A9000CDE9020041F20000C2F2000002A90822A2
:104AA000FEF7EEFA601E58E72DE9F04381B040F2C0
:104AB0000C18C2F2000898F80000C00716D140F2A6
:104AC0001820C2F2000000F15E070021222200BF80
:104AD0000823384620F8022F013B02820284F9D1D4
:104AE00001313D2907F13007F2D141E040F20710D2
:104AF000C2F20000027840F20810C2F2000003780F
:104B000040F2182040F2061CC2F20000C2F2000C73
:104B10000021A0F1020E80244FF000098CF8001053
:104B20000026704624FA06F74525174208BF2225BD
:104B3000A0F8625045250F4208BF2225A0F8725008
:104B40001F424FF0450506F1010608BF2225A0F8D7
:104B50008250082E00F10200E4D109F1010902316E
:104B6000B9F13D0F0EF1300EDAD17A208CF8000049
:104B700041F6480040F21822C2F20000C2F20002E0
:104B800008214FF4BD63FDF703FCD8F800000121B4
:104B90000130C8F8000040F2A810C2F20000016025
:104BA00001B0BDE8F083F1EE100A4FF6FF71C0F2DC
:104BB000C03120EA010040F04070E1EE100A704779
:104BC000370000003C000000350000003F000000FE
:104BD000390000003A0000002A0000003800000000
:104BE00000000000010000000200000003000000BF
:104BF000040000000500000006000000070000009F
:104C000008000000090000000A0000000B0000007E
:104C10000C0000000D0000000E0000000F0000005E
:104C2000100000001100000012000000130000003E
:104C3000140000001500000016000000170000001E
:104C400018000000190000001A0000001B000000FE
:104C50001C0000001D0000001E0000001F000000DE
:104C600020000000210000002200000023000000BE
:104C7000240000002500000026000000270000009E
:104C800028000000290000002B0000002C0000007C
:104C90002D0000002E0000002F000000300000005A
:104CA000310000003200000033000000340000003A
:104CB00036000000370000003B0000003D0000000F
:104CC00001000000010000000100000001000000E0
:104CD00001000000010000000100000001000000D0
:104CE000350000001E0000001F0000002000000032
:104CF000210000002200000023000000240000002A
:104D00002500000026000000270000002D00000004
:104D10002E0000002A0000002B00000014000000FC
:104D20001A00000008000000150000001700000035
:104D30001C000000180000000C0000001200000021
:104D4000130000002F0000003000000031000000C0
:104D500039000000040000001600000007000000F9
:104D6000090000000A0000000B0000000D00000018
:104D70000E0000000F0000003300000034000000AF
:104D800028000000000000001D0000001B000000C3
:104D900006000000190000000500000011000000DE
:104DA000100000003600000037000000380000004E
:104DB00000000000000000002C000000290000009E
:104DC00000000000000000000102030406070809BB
:104DD0000006101600061016F84D0008000000200E
:104DE000B8010000D0010008084F0008B8010020F9
:104DF000E01C00002C02000813AD2D1B08E5041A6E
:104E0000F50413152E1B0845041A890C1ABD04104D
:104E10000E05010906A101050719E029E715281A61
:104E20002501750195088102950175088103950595
:104E300075010508190129059112180803910395B8
:104E4000067508261A6530111429658122C01324BD
:104E5000F41312013202164087054F372602010271
:104E6000030113353014087D2F1B08B908811A6916
:104E70001001101AE5141ABD041A0D281AAD0814F1
:104E800009022213010125E03209041B01030B155D
:104E9000092111011401223F160705810304220A8A
:104EA0007912314B0A067C1973110718040309049F
:104EB0001A03342222222928213A02302908293DC6
:104EC0002908196E390849A15C024010085A2008C7
:104ED0005A40085A80084949190829111A0808290E
:104EE000295A042019083948190839481908394835
:104EF0001908393829082979290829792908192907
:084F0000291B2904497C210052
:040000050800019559
:00000001FF
